:400000000010002011000000B9090000B909000010B500F0F1FCC04670B5194C23688022D20213432360182000F0A4FF2268154B13402360144A154B1A602022144B1A6011
:40004000103A144B1A602032134B1A6080221206124B1A6000252560114A124B1A60124A124B1A60124A134B1A601349092000F027FF092000F0FEFE104B1D6070BDC046A4
:4000800000010B40FFFFFBFF0600008004010B4008020240340202403C02024008010B4002000080000002401000008040000240BF5D0080800002407D1200000C020B4072
:4000C00070B572B60122434B1A7000240FE042486200131959000B00411889881A5AC31858880004104300F05DFC0134E4B2022CEDD9002411E0384EA200131959007118A6
:400100008D8AC88A000428430A8B498B09041143802200F04DFC0134E4B2002CEBD02E4920312E48103000F023FC2D4A2D4B1A60C02292002C4B1A602C4A2D4B1A6090221B
:400140002C4B1A6099231B042B4A13608421C9052A4A11602A4A1360C0218903294A1160294A1360C0221206284B1A600522284B1A600132274B1A6027490B78363293430A
:4001800014221343DBB20B70244A117816230B43DBB213709222224B1A60224A224B1A600422224B1A60AD32FF32214B1A60313AFF3A204B1A60204A204B1A600223204AC5
:4001C000136030211F4A11601F4A1360FFF724FF70BDC0461C700F40CC3500004C38000000000330000001400400014000EE00300C0001401000014000500F4008500F401E
:4002000010500F4018500F4030500F4038500F402000004000800F4001700F4000700F40000004403360C30008000440000104400801044000030440800DC00008030440A9
:4002400000040440080404401804044010B5064C2378002B07D1054B002B02D0044800E000BF0123237010BD480100200000000004270000084B10B5002B03D007490848CB
:4002800000E000BF07480368002B00D110BD064B002BFBD09847F9E7000000004C01002004270000C00000200000000010B501F03DF810BDF0B5474680B486B001F0DAFB84
:4002C00000F014FD012000F0B5F900F0DBF801F0B7F90A21012001F023F800F05BFF424800F00EFF00240AE0200000F06BFF002804D13E49280000F05DFF03E001342500F4
:40030000042CF1D962B6002001F03CFB384B00939D237F220021002000F04CF900260023984601F00BFB040000230093323314226421052000F03EF9230D032213409A00F0
:40034000D3185A00250C0F210D405519220B0720024093009A185300270A0F40DF19230903409A00D3185A000C40141900943B002A00204902A801F0A1FDB84508D000231C
:400380000093323314223221052000F013F9B846AE4216D000230093283314221E21052000F008F9002409E001F0F8FAC043C0B201F0E8FA642000F0BBFD0134AC42F3D3DE
:4003C00000E035000A4B009302231E22052102A800F094FA002001F0D5FAE120800000F0A7FD2E009DE7C046009F2400AD0200001F05000010270000884203D3904202D986
:40040000100000E00800704710B50400002000F01BFD200000F098FB012000F0A1FD10BD10B50400012000F00FFD200000F08CFB012000F095FD10BD10B50300000ADCB2B0
:40044000FFF7EEFF2000FFF7EBFF10BD70B505000C002A20FFF7D8FF2800FFF7EDFF2000FFF7EAFF70BDC04670B505000C002B20FFF7CAFF2800FFF7DFFF2000FFF7DCFF16
:4004800070BDC04610B5104C21880020FFF7DEFF61880020FFF7E8FF2C20FFF7B5FF00240DE0FF20FFF7BCFFFF20FFF7B9FFFF20FFF7B6FFFF20FFF7B3FF0134A4B2034B58
:4004C0009C42EED910BDC046C4000020FF4F0000F0B54F4680B482B00F0014001E0008AB1D88ED43ABB29946884202D9484047407840B44203D9744066407440A4B2204D9E
:400500002B8800931A000021FFF776FF0190009A00213800FFF770FF07006D882A0000212000FFF769FF04002A0000213000FFF763FF0500390001983A1A01322B1B013372
:4005400053431F00FFF782FF29002000FFF78CFF2C20FFF759FF4B461E0A4B466A4613701578002406E03000FFF75AFF2800FFF757FF0134BC42F6D302B004BC9146F0BDF2
:40058000C400002010B50C000100FFF75FFF21002000FFF769FF2C20FFF736FF10BDC04610B51400FFF7EEFFE04380B2FFF744FF10BDC04630B583B00C0006A90D88E318C8
:4005C0009BB2821891B200952200FFF781FF03B030BDC04610B504003620FFF715FF012C0AD0002C04D0022C0AD0032C0CD00EE04820FFF715FF0AE02820FFF711FF06E03D
:400600008820FFF70DFF02E0E820FFF709FF002C01D0022C05D1064B80221A8020325A8004E0034BA0221A80203A5A8010BDC046C400002010B50400002001F097F90A2061
:4006400000F076FC012001F091F90120FFF7DCFE642000F06DFCCB20FFF7D6FE3920FFF7DFFE2C20FFF7DCFE0020FFF7D9FECC20FFF7D6FE0220FFF7D3FECF20FFF7C4FE7E
:400680000020FFF7CDFEC120FFF7CAFE3020FFF7C7FEE820FFF7B8FE8520FFF7C1FE0020FFF7BEFE7820FFF7BBFEEA20FFF7ACFE0020FFF7B5FE0020FFF7B2FEED20FFF74C
:4006C000A3FE6420FFF7ACFE0320FFF7A9FE1220FFF7A6FE8120FFF7A3FEF720FFF794FE2020FFF79DFEC020FFF78EFE2320FFF797FEC120FFF788FE1020FFF791FEC520DA
:40070000FFF782FE2B20FFF78BFE2B20FFF788FE2000FFF75FFFB120FFF776FE0020FFF77FFE1B20FFF77CFEB620FFF76DFE0A20FFF776FE0220FFF773FEF220FFF764FE07
:400740000220FFF76DFE3A20FFF75EFE0520FFF767FE2620FFF758FE0120FFF761FEE020FFF752FE0F20FFF75BFE3120FFF758FE2B20FFF755FE0C20FFF752FE0E20FFF737
:400780004FFE0820FFF74CFE4E20FFF749FEF120FFF746FE3720FFF743FE0720FFF740FE1020FFF73DFE0320FFF73AFE0E20FFF737FE0920FFF734FE0020FFF731FEE12003
:4007C000FFF722FE0020FFF72BFE0E20FFF728FE1420FFF725FE0320FFF722FE1120FFF71FFE0720FFF71CFE3120FFF719FEC120FFF716FE4820FFF713FE0820FFF710FE75
:400800000F20FFF70DFE0C20FFF70AFE3120FFF707FE3620FFF704FE0F20FFF701FE1120FFF7F2FD782000F083FB2920FFF7ECFD10BDC046F0B557464E464546E0B484B060
:4008400081460F00924698460CAB1B880393284B1B88994245DA264B5B889A4241DA43465A0042445300CB18012B3AD44346DB005344012B35D4002631E0052E06D04B46C7
:400880009B004B449B191B4AD55C00E00025002421E0EB071CD54346012B08D1F11989B25346E01880B2039AFFF77AFE10E043466A465381528931005143C91989B220003C
:4008C0005043504480B20C4B00931300FFF772FE6D08013464B2072CDBDD013676B2052ECBDD04B01CBC90469946A246F0BDC046C400002020270000FFFF0000F0B5474620
:4009000080B484B004000F0016001D000AAB1B88984623E00A2804D1EB00F618B6B200271BE00D2819D0EBB203933AB231B243460093039BFFF77EFF6A00AA185300F6186C
:40094000B6B2AA00AA1A5300084A1288D3189F4203DDEB00FF18BFB20026013420780028D8D104B004BC9046F0BDC046C4000020F0B50025002711E0BB00C658F3B2FF221D
:40098000964308E06A008A181478A419527822700135013BDBB2002BF4D10137092FEBD9F0BDC04610B50A00002101F07EFA10BD10B501F071FA10BD10B501F041FA03687F
:4009C0000C2B00D1FEE7FEE710B50300084A1068C318084A9A1A802A02DC054A136005E001F02EFA0C2303600120404210BDC046C80000201002002070B50F4E0F4D13E077
:400A000029686B68AC68002202E001C901C30432A242FAD1E868002202E0002102C304328242FAD11035013E002EE9D101F00EFAFFF740FCFEE7C04601000000B439000058
:400A400010B500230AE0032B03D89A000949505800E009489900094A885001332F2BF2D9FFF72EFB8022D205116801230B43136010BDC04600000000B9090000000000200E
:400A800010B5022000F0F6F910BDC04610B5002000F0F0F910BDC04610B501F007F80D4A117820230B43DBB213700B490A7810231A43D2B20A70094A11780B43DBB2137038
:400AC00000F0F8FF00F0CCF9FFF7DAFFFFF7DEFF10BDC04693000F4091000F4092000F4010B5022000F0D0F910BDC04610B5002000F0CAF910BDC04610B5FFF7F1FF064B68
:400B00001978064A147809231C400C4300231370FFF7B6FF200010BD61000F40C801002010B5FFF7E3FF064B1978064A147840231C400C4300231370FFF7A8FF200010BD01
:400B400062000F40D901002010B504002B4B1B78DBB2002B02D0013BDBB200E00723284A1278D2B29342F1D0FFF7BAFF254B187825490B780922134003430B701F4B1A78AA
:400B8000D2B21F4B1B78DBB29A4205D10B785B0702D51E4B1C702DE0194A13780133DBB213701378DBB2072B02D90022144B1A70134B1A78D2B2114B1B78DBB29A420ED1AA
:400BC0000E4A13780133DBB213701378DBB2072B02D90022094B1A7001220D4B1A70084B1B78DBB20B4AD4540B4A117804230B43DBB21370FFF744FF10BDC046D50100204F
:400C0000D701002061000F40C801002042000F40D4010020C001002081000F4010B501E00A4B1B780A4B1B789B06F9D400F03EFF084A117801230B43DBB2137013780121D1
:400C40008B43137000F036FF10BDC04652000F4062000F4092000F4010B50F22184B1A70022000F011F90321022000F03BF91549022000F025F9002000F006F903210020AE
:400C800000F030F91049002000F01AF9FFF7C6FF00240E4B1C700E4B1C700E4B1C700E4B1C700E4B1C700E4B1C70FFF725FFFFF737FF0C4B1C7020220B4B1A7010BDC04644
:400CC00083000F400D0D0000A90D0000BC010020D8010020D6010020D4010020D5010020D701002081000F4082000F4010B5064B1B78002B04D1FFF7AFFF0122024B1A70BA
:400D0000FFF7CAFE10BDC0466401002026E01E4B18781E490B780922134003430B700B785B0723D51A4B1B78002B0CD1194A13780133DBB213701378DBB2072B06D900221B
:400D4000144B1A7002E00022114B1A70114B1B78DBB2114AD35CDBB2104A13700D4B1A78D2B20F4B1B78DBB29A42D0D1094B1A78D2B20B4B1B78DBB29A4204D1094A13785C
:400D800004218B431370704761000F40C8010020D4010020D5010020C001002042000F40D701002081000F40204B187820490B784022134003430B7032E01E4B1A78D2B25A
:400DC0001D490B780133DBB20B700B78DBB2072B02D90021184B1970174B1978C9B2174B1B78DBB299420ED114490B780133DBB20B700B78DBB2072B02D900210F4B1970BD
:400E000001210F4B19700C4B1B78DBB20D49CA54064B187806490B784022134003430B70034B1B789B06C8D47047C04662000F40D901002052000F40D6010020D801002082
:400E4000BC010020CC01002004490A68D2B220239A434001184010430860704700000440034A1368802109060B4313607047C046000002401F2318401E3B8340014A13604A
:400E80007047C04600E100E01F2318401E3B8340014A13607047C04680E100E001BE704770B504000D000F2802D90020FFF7F6FFA40080239B059C4664442068256070BDCE
:400EC00070B504000D001F2802D90020FFF7E6FF1034A40080239B059C4664442068256070BDC04670B504000E00032902D90020FFF7D4FF1F2C02D90020FFF7CFFF032551
:400F00002540ED00063500F0D1FDA408A400074B9C46644421680323AB4099430B003100A9401943216000F0C5FD70BD00E400E010B5040006E0084B586800F0ADFD074B71
:400F40009C46644480231B029C42F4D8024B9868604300F0A1FD10BDCC0000200080FFFF10B5034B1B7B584300F096FD10BDC046CC000020F0B557464E46C0B483B00400C1
:400F800000F094FD0190E71E2D2F74D83F4B1B78DBB29C4208D83E4B1B78DBB29A463D4B1B78DBB2994631E03B4B1B78DBB29C4208D83A4B1B78DBB29A46394B1B78DBB25C
:400FC000994623E0374B1B78DBB29C4208D8364B1B78DBB29A46354B1B78DBB2994615E0334B1B78DBB29C4208D8324B1B78DBB29A46314B1B78DBB2994607E02F4B1B7872
:40100000DBB29A462E4B1B78DBB299462D4BDE5D2F2E09D92A2C07D919222B4B1A60052000F03AFD192503E0274B1D683F231D40B54206D9234BDA5D234B1A60052000F0DD
:401040002BFD1F4B9C4664442378DBB21F4A13601F4B52461A601F4B4A461A600520FFF77FFFB5420AD2174BDA5D174B1A60052000F012FD02E00020FFF710FF019800F0CB
:4010800019FD03B00CBC91469A46F0BDC0F1FF0FC1F1FF0FC2F1FF0FC3F1FF0FC4F1FF0FC5F1FF0FC6F1FF0FC7F1FF0FC8F1FF0FC9F1FF0FCAF1FF0FCBF1FF0FCCF1FF0F3A
:4010C000CDF1FF0F043900002CFF0B4028FF0B401CFF0B4020FF0B40024A116802230B431360704710E000E010B5FFF7F5FF034A116801230B43136010BDC04610E000E000
:401100000002000A014B18607047C04614E000E0024B1868000C01231840704710E000E010B5FFF7F5FF01280BD107E0A300054A9B58002B00D09847013400E00024042CAF
:40114000F4D910BD680100200022014B1A60704718E000E010B5002304E0990000200A4A88500133042BF8D908490F20FFF798FE074B1869FA21890000F0A0FCFFF7C0FF2C
:40118000FFF7E2FF10BDC0466801002021110000CC00002010B5064B5B69002B04D1FFF7D9FF0122024B5A61FFF79EFF10BDC04668010020024A8300985899507047C046B7
:4011C000680100208000014BC058704768010020034B1868C0231B02184000D00120704700010B4010B500F061FC044A1368C02109020B43136000F05DFC10BD00010B403E
:4012000010B500F053FC08490A68084B1A408024E40122430A600A6813408022120213430B6000F047FC10BD00010B40FF3FFFFF70B5050000F03AFC0400FFF7C9FF0028E4
:4012400003D0FFF7DDFF012100E0002108482840084A1568084B2B40184310601368012901D1FFF7BFFF200000F024FC70BDC0460404040010020B40FBFBFBFF10B5244B7B
:401280001B685B0715D5234B1B685B070ED5224BD969042001401F4C22688A432260DA698243DA611B69002B00D098470420FFF7BFFF174B1B685B0518D5164B1B685B05E2
:4012C00010D5154BD9698022D2001140114802688A430260D969114A0A40DA615B69002B00D098478020C000FFF7A2FF084B1B685B030CD5074B1B685B0304D5064B9B6983
:40130000002B00D098478020C002FFF791FF10BD10020B40E000002080010020FFFBFFFF014B186059607047A001002070B50B4A936811688C4663449360526893420BD36C
:40134000074E346875680120002100196941306071609B1A014A936070BDC046A001002000020020F0B557464E464546E0B480460E00030B03221A40FA20800001005143AB
:4013800043461B0A0F200340642463435A1843461B0903409900CB185B009B184246024099469144002400255F4F1FE0BB0705D16421380000F008FC002908D1C821490002
:4013C000380000F001FC002903D1012302E0012300E00023002B04D0544A0023A4185D4103E0534A0023A4185D4101374F45DDD343461B0F012213409A00D3185B0042467A
:40140000120E0F271740DF197B1E5B00494A9B5A9A464B469B0705D16421484600F0D4FB002908D1C8214900484600F0CDFB002903D1012302E0012300E00023002B04D02D
:40144000022F02D901239C46E2443B4A00235046002100F0DFFB24184D4143461B0D03273B409800C3185B004246100C0F22904610401818304A0023002100F0CBFB2F4A05
:4014800001235B428018594124184D41300D0740B800C7197F00300C43461840381880231B04334000D00123002B13D08023DB0332001A409A4201D1012300E00023002B23
:4014C00003D00B2801D80C3004E0002B02D10C2800D10020E12212010023002100F09AFB24184D41330B0722904613409800C3185B00300A0F27384018183C220023002109
:4015000000F088FB001969413309424613409A00D3185B003E409C190025001969411CBC90469946A246F0BDB20700000085E2018033E101343900008051010080AEFEFF21
:40154000F0B583B001900E000B0D032423409A00D31858000F0C0F231F40C7190A0F01210A4091008A185100300E18400D18320B1440FA22920062431000340A1C40642112
:401580000A006243841832091A4091008A18510064183340E41801993000FFF7E3FE164B18605960154B5E60019A1A60022D01D80C35013C681C1A2358430A2100F07EFA01
:4015C000C7193F19A308FF186421200000F076FA430018184300FF18C8214900200000F06DFA3818072100F0EFFA002900D10731024B996003B0F0BD00020020E401002026
:4016000010B50122074B1A700023074AD360074AD360074A1370074A136007490748FFF78FFF10BDE0010020A0010020E4010020F8010020F40100201820090909101800C3
:4016400010B5034B1B78002B01D1FFF7D9FF10BDE001002070B50C00431E0F4AD3181D7E022816D18B0705D16421200000F0ACFA002908D1C8214900200000F0A5FA0029FA
:4016800003D1012302E0012300E00023002B00D00135280070BDC04634390000F0B55F4656464D464446F0B485B0824614001D009D4B9E4A90461EE0A41BBD4101239C46F4
:4016C000E04443469B0705D16421404600F07CFA002908D1C8214900404600F075FA002903D1012302E0012300E00023002B01D08F4B00E08C4B1E000027AF42DCD1A342BC
:40170000DAD941460120FFF7A5FF8A4B58430137C146B8460AE0A41BBD4101239C46E04449464046FFF796FF824B584306000027AF42F0D1A042EED94746C8467D4A002321
:401740002000290000F046FA7A4941430A000023AB4203D1A14201D900220023A41A9D41431C9946E122120100232000290000F031FA0090E121090141430E9B002B14D06A
:40178000002D03D10AD16C4B9C4207D9009B0C2B0ED90C38009001239B460EE0009B002B09D19B460C33009307E000239B4604E001239B4601E000239B460A000023AB4232
:4017C00003D1A14201D900220023A41A9D413C2200232000290000F0FDF906000101891B8A000023AB4203D1A24201D900220023A41A9D41029403950A21380000F05EF936
:4018000005070A21380000F0DFF90C0625430A21484600F053F904052C430A21484600F0D3F90D042C43FA218900404600F046F905032543FA218900404600F0C5F90C00E8
:401840006421200000F03AF9000205436421200000F0BAF90C000A21200000F02FF9000105430A21200000F0AFF90D4353465D600E9BDB055A4695052B431C000A210098BD
:4018800000F01CF9050525430A21009800F09CF90C0425430A21300000F010F904032C430A21300000F090F909020C430A21029D039E280000F002F9000104430A212800E0
:4018C00000F082F90C4353461C60022F04D80C3701235B429C46E04401371A2078430A2100F0ECF84844404443469C0804196421404600F0E3F84300181840002418C821CE
:401900004900404600F0DAF82018072100F05CF9002900D107315346996005B03CBC90469946A246AB46F0BD8033E101B20700000085E20180510100C1A8000010B582B0DD
:40194000074B1A685B68074CE068002112184B41054C00912000FFF7A1FE206802B010BD00020020A0010020E4010020044A1368DBB201218B430840184310607047C046C2
:401980000000044004490A68D2B202239A434000184010430860704700010440024B1868400801231840704704010440034A117880235B420B43DBB21370704770000F40D4
:4019C000014B18707047C04600000F40014B18707047C04640000F40014B18707047C04620000F40014B18707047C04680000F40014B1878C0B2704760000F40014B1878F7
:401A0000C0B2704750000F4010B501E0FFF7F6FFFFF7EEFFC306F9D410BDC04610B513490B783F22934309221343DBB20B70104C227801231343DBB22370FF20FFF7C0FF39
:401A4000FF20FFF7C3FF7F20FFF7C6FF0020FFF7C9FF00F02BF8227810231343DBB2237000F028F8FFF7D0FF10BDC04670000F4090000F4010B5064B1B78002B04D1FFF71C
:401A8000CDFF0122024B1A70FFF790FF10BDC046B0010020000000000230800804D0C0460138FDD1C046C046C0467047EFF3108072B6704780F310887047C046002243084D
:401AC0008B4274D303098B425FD3030A8B4244D3030B8B4228D3030C8B420DD3FF22090212BA030C8B4202D31212090265D0030B8B4219D300E0090AC30B8B4201D3CB0340
:401B0000C01A5241830B8B4201D38B03C01A5241430B8B4201D34B03C01A5241030B8B4201D30B03C01A5241C30A8B4201D3CB02C01A5241830A8B4201D38B02C01A52416A
:401B4000430A8B4201D34B02C01A5241030A8B4201D30B02C01A5241CDD2C3098B4201D3CB01C01A524183098B4201D38B01C01A524143098B4201D34B01C01A5241030978
:401B80008B4201D30B01C01A5241C3088B4201D3CB00C01A524183088B4201D38B00C01A524143088B4201D34B00C01A5241411A00D20146524110467047FFE701B50020CF
:401BC00000F006F802BDC0460029F7D076E770477047C046002B11D1002A0FD1002900D1002802D00021C943081C07B4024802A14018029003BDC046D9FFFFFF03B4684682
:401C000001B5029800F032F8019B9E4602B00CBC7047C046F0B54F464646C0B41604360C9946330005042C0C070C150C63437E436F4365431C0CAD1964199C46A64203D994
:401C400080235B02984647446346250CEF191D044B464A4343432D0C240464199918C91920000CBC90469946F0BDC046F0B54D46564644465F46F0B4924683B004000D00D0
:401C800099468B422FD82CD04946504600F0AEF829000600200000F0A9F8331A9846203B9B4600D574E053465A4693401F005346424693401E00AF4229D826D05B46A41BC5
:401CC000BD41002B00DA79E0002200230092019301235A4693400193012342469340009319E08242D0D900220023009201930C9B002B01D01C605D600098019903B03CBC56
:401D000090469946A246AB46F0BDA342D6D900220023009201934346002BE8D0FB0772081A4346467B080EE0AB4201D1A2420CD8A41A9D41012024196D410021013E24185C
:401D40004D41002E06D0AB42EED9013E24196D41002EF8D15B460098019900196941002B22DB2B005A46D3402A004446E2401C005B461500002B2CDB26009E403300260029
:401D80004746BE403200801A994100900191AEE7424620239B1A5246DA40414613004A468A4017001F4382E7424620239B1A2A0046469A402300F3401343D5E742462023F0
:401DC00000219B1A0022009101920122DA40019282E74246202326009B1ADE402F00B446974066463B003343C9E7C04610B5002903D100F007F8203002E0081C00F002F8C6
:401E000010BDC0461C2101231B04984201D3000C10391B0A984201D3000A08391B09984201D30009043902A2105C40187047C04604030202010101010000000000000000E2
:401E4000014B18687047C046440100200E4B70B500251E000D4CE41AA410A54204D0AB00F35898470135F8E701F092FD084B00251E00084CE41AA410A54204D0AB00F35836
:401E800098470135F8E770BD9C3900009C3900009C390000A4390000002310B59A4203D0CC5CC4540133F9E710BD03008218934202D019700133FAE7704700000EB410B5CD
:401EC0009DB002A9029008610B48822488604861012040421FABC881084804CBA400006801938C8100F06EF80023029A13701DB010BC08BC03B01847FFFFFF7F44010020FB
:401F0000F0B58E6885B007000C00039201939E4243D890238A89DB001A423ED003250969236801985B1A029363695D43EB0F5D19029B6D1001331B18AB4200D91D0053052F
:401F400010D52900380000F037FB061E14D0029A2169FFF7A1FFA289194B134080221343A38112E02A00380000F086FB061E0CD12169380000F0D4FA0C23402201203B60A4
:401F8000A38940421343A38117E0029B2661F61826606561019EED1AA560019BB34200D21E0032000399206800F0A5FA0020A3689B1BA36023689E19266005B0F0BDC0465F
:401FC0007FFBFFFFF0B59FB0029005938B890F0016001B0610D50B69002B0DD1402100F0EBFA38603861002804D10C23029A01381360D8E040237B61002306AD6B612033C8
:402000006B761033AB7634002378002B03D1A31B049312D003E0252BF9D00134F4E7A31B320039000298FFF76BFF431C00D1B4E06A69049B944663446B612378002B00D10D
:40204000ABE00122002352426A6002A95432521801342B60EB60AB601370AB65534E21780522300000F03CFA002807D00123801B83402A68013413432B60EFE72B68DA06C4
:4020800004D55322202102A8121811701A0704D553222B2102A81218117022782A2A03D0099B00200A210EE0059A111D12680591002A01DB099204E05242EA6002221343D4
:4020C0002B6001340BE02278303A092A04D84B4301349B180120F6E7002800D0099323782E2B1ED163782A2B0AD1059B02341A1D1B680592002B01DA01235B42079310E0B4
:4021000000230A201A0001346B6021783039092904D84243013452180123F6E7002B00D00792234E21780322300000F0D9F9002806D04023801B83402A68013413432B60E7
:40214000217806221B48661C297600F0C9F9002812D0194B002B06D10722059B073393430833059314E005AB00933A00134B2900029800E000BF07E005AB00933A000F4B5D
:402180002900029800F08AF80390039B013304D06B69039A9B186B6135E7BB890B985B0601D5012040421FB0F0BDC0465A390000603900006439000000000000011F000079
:4021C000F7B5170001938A680B6900900C00934200DA130022003B6043321278002A01D001333B6023689B0602D53B6802333B60062523681D401ED0230043331B785A1E23
:402200009341226892061CD53020E1184331087021005A1C45310978A2184332023311700FE022000123193201990098089EB047431C0ED00135E3683A689B1A9D42F0DB01
:40224000DAE72200019943320098089DA847431C02D10120404220E006232068E1683A6803400025042B03D18D1AEB43DB171D40A3682269934201DD9B1AED180027BD4217
:402280000AD0220001231A3201990098089EB047431CDED00137F2E70020FEBDF0B58BB006920A0043320793059004920A7E0C00109B6E2A00D1ABE011D8632A22D009D8B2
:4022C000002A00D1B5E0582A00D0C5E045310A70814A4FE0642A1DD0692A1BD0BCE0732A00D1AAE009D86F2A29D0702A00D0B3E0202209680A43226037E0752A1FD0782AA7
:4023000033D0A9E00E001A684236111D196013683370A4E021681A68080606D4490604D5111D19600023D55E02E0111D19601568002D3BDA2D23049A6D42137036E02168A1
:402340001A68080606D4490604D51568111D1960ADB202E0111D196015685F4B227E039308276F2A1DD00A271BE022007821453211705A4A19680392081D226818600D6878
:40238000100602D4500600D5ADB2D30702D520231A4322601027002D03D1202322689A4322602300002243331A7002E00A274A4B03936368A360002B09DB0422216891438D
:4023C0002160002D05D1049E002B11D07BE0002D79D0049E28003900FFF7F6FB039B013E5B5C280033703900FFF768FB051EF1D1082F09D12368DB0706D563682269934296
:4024000002DC3023013E3370049B9B1B23612BE009681A68080607D4490605D5111D19601368A28A1A8004E0111D1960136862691A600023049E236116E01A68111D196005
:40244000166800216268300000F04AF8002801D0801B6060636803E0260042363270012323610023049A1370079B09AA00932100069B0598FFF7A4FE431C02D101204042AF
:4024800027E02369320006990598079DA847431CF4D0236800259B070FD4099BE068984217DA180015E022000123193206990598079EB047431CE1D00135E368099A9B1A1A
:4024C0009D42F0DBE9E72600039B42361B7833708EE70BB0F0BDC0466B3900007C390000C9B28218904204D003788B4202D00130F8E70020704710B5884202D98B18984211
:4025000001D3002305E09B1A013A08D3995C8154FAE7934203D0CC5CC4540133F9E710BD70B50500002944D00C1F2368002B00DAE418280000F0D8F81E4A13681100002B5B
:4025400002D16360146031E0A3420DD92268A018834203D118685B688218226063600C6024E0A24203D813005A68002AF9D11E689819A0420BD121687118581819608242CC
:4025800014D110685268411819605A600EE0A04202D90C232B6009E021686018824203D1106852684118216062605C60280000F09CF870BDB8010020032370B5CD1C9D4341
:4025C000083506000C2D01D20C2501E0002D01DBA94202D90C23336048E0300000F084F8234B1C681A002100002913D00B685B1B0DD40B2B02D90B60CC181EE08C4202D123
:40260000636813601AE04B6863600C0016E00C004968E9E7174C2368002B03D1300000F051F820602900300000F04CF8431C18D00323C41C9C43A0420DD12560300000F069
:4026400054F8200007220B30231D9043C31A0ED05A42E2500BE0211A300000F033F8431CEBD10C233000336000F03FF8002070BDB8010020B4010020F8B506000C0015007A
:40268000002904D11100FFF797FF040018E0002A03D1FFF745FF2C0012E000F027F885420ED929003000FFF787FF071E07D021002A00FFF7F1FB21003000FFF731FF3C00BF
:4026C0002000F8BD002370B5064C050008002360FEF77AF9431C03D12368002B00D02B6070BDC04608020020704770470B1F1A68101F002A04DA891804390B68D01804380C
:40270000704700000000000064F5FF7F01000000253032753A253032753A25303275000000000000003E5B4F5B3E3E6B4F6B3E1C3E7C3E1C183C7E3C181C577D571C1C5E4D
:402740007F5E1C00183C1800FFE7C3E7FF0018241800FFE7DBE7FF30483A060E2629792926407F050507407F05253F5A3CE73C5A7F3E1C1C08081C1C3E7F14227F22145F3E
:402780005F005F5F06097F017F006689956A606060606094A2FFA29408047E040810207E201008082A1C08081C2A08081E101010100C1E0C1E0C30383E3830060E3E0E0653
:4027C000000000000000005F00000007000700147F147F14242A7F2A12231308646236495620500008070300001C2241000041221C002A1C7F1C2A08083E08080080703047
:40280000000808080808000060600020100804023E5149453E00427F400072494949462141494D331814127F1027454545393C4A4949314121110907364949493646494971
:40284000291E0000140000004034000000081422411414141414004122140802015909063E415D594E7C1211127C7F494949363E414141227F4141413E7F494949417F09B6
:402880000909013E414151737F0808087F00417F41002040413F017F081422417F404040407F021C027F7F0408107F3E4141413E7F090909063E4151215E7F091929462670
:4028C0004949493203017F01033F4040403F1F2040201F3F4038403F631408146303047804036159494D43007F4141410204081020004141417F04020102044040404040F4
:40290000000307080020545478407F284444383844444428384444287F385454541800087E090218A4A49C787F0804047800447D40002040403D007F1028440000417F40DA
:40294000007C047804787C080404783844444438FC1824241818242418FC7C08040408485454542404043F44243C4040207C1C2040201C3C4030403C44281028444C909084
:40298000907C4464544C4400083641000000770000004136080002010204023C2623263C1EA1A161123A4040207A3854545559215555794121545478412155547840205466
:4029C0005579400C1E5272123955555559395454545939555454580000457C410002457D420001457C40F0292429F0F0282528F07C545545002054547C547C0A097F4932DC
:402A0000494949323248484832324A4848303A4141217A3A42402078009DA0A07D39444444393D4040403D3C24FF2424487E4943662B2FFC2F2BFF0929F620C0887E09036C
:402A400020545479410000447D413048484A32384040227A007A0A0A727D0D19317D2629292F28262929292630484D4020380808080808080808382F10C8ACBA2F1028347E
:402A8000FA00007B000008142A142222142A1408AA005500AAAA55AA55AA000000FF00101010FF00141414FF001010FF00FF1010F010F0141414FC001414F700FF0000FF6C
:402AC00000FF1414F404FC141417101F10101F101F1414141F00101010F0000000001F101010101F10101010F010000000FF101010101010101010FF10000000FF140000F5
:402B0000FF00FF00001F10170000FC04F414141710171414F404F40000FF00F714141414141414F700F7141414171410101F101F141414F4141010F010F000001F101F00FC
:402B400000001F14000000FC140000F010F01010FF10FF141414FF141010101F00000000F010FFFFFFFFFFF0F0F0F0F0FFFFFF0000000000FFFF0F0F0F0F0F384444384429
:402B80007C2A2A3E147E02020606027E027E0263554941633844443C04407E201E2006027E020299A5E7A5991C2A492A1C4C7201724C304A4D4D303048784830BC625A46F9
:402BC0003D3E494949007E0101017E2A2A2A2A2A44445F444440514A444040444A51400000FF0103E080FF000008086B6B083612362436060F090F060000181800000010E6
:402C000010003040FF0101001F01011E00191D1712003C3C3C3C0000000000000000000000000000000000000000000000000000F8000000000000001900000000000078FC
:402C40000078000000000000000000000040C07840E07840021A07021E03020000E09010FC101020000811117F11130E3048483080804000000201010C12120C0000F0C885
:402C800008080000000F18101116081700000000780000000000000000000000000000E01C04000000000007182000000000041CE000000000002038070000000090A060E1
:402CC000F860A090000000000100000000000000E0000000000101010F010101000000000000000000004038180000000000000000000000000002020202000000000000BE
:402D00000000000000000018180000000000000080700800004038060100000000E01008880810E0000708101010080700001008F8000000000010101F1010000010080897
:402D40000808987000101814121311100010088888884870000810101010190F000080603008F8000003020202021F0200F8484848488800000810101010080700E0309806
:402D800088888810000709101010190F0008080808C838180000100C030000000070888888888870000F19101010190F00F09808080890E00008111111190C07000000C06D
:402DC000C00000000000001818000000000000C0C0000000000040381800000000008080C040402000010202060404080040404040404040000202020202020200204040EA
:402E0000C0808000000804040602020100100888C87000000000001B0000000000C03018884858F0000F30204748480F0000C0300830C000001807020202071800F888882B
:402E400088888870001F10101010190F00E0100808080810000708101010100800F80808080810E0001F10101010080700F8888888888888001F10101010101000F8888827
:402E800088888888001F00000000000000E0100808080810000708101010110F00F88080808080F8001F00000000001F00000808F8080800000010101F1010000000000827
:402EC0000808F8000008101010180F0000F880C020100800001F00000306081000F8000000000000001F10101010101000F818E000E018F8001F00000100001F00F81860B5
:402F0000800000F8001F00000106181F00E01008080810E0000708101010080700F80808080898F0001F01010101010000E01008080810E0000708101030780700F80808D4
:402F4000080898F0001F01010101020C0070908808080810000810101111190E00080808F8080808000000001F00000000F80000000000F8000F18101010180F0018E000BA
:402F80000000E0180000010E100E0100788000C0C000807800031C03031C0300000810608060100800100C0300030C10000830C080C03008000000001F00000000080808E2
:402FC0008848381800181C1211101010000000FC040400000000003F202000000008708000000000000000010638400000000404FC000000000020203F00000000406010FD
:403000000810604000000000000000000000000000000000808080808080808000000206080000000000000000000000000040202020C000000E111111091F0000FC602083
:4030400020608000001F08101018070000804020202040000007081010100800008060202060FC000007181010081F00008060202060C0000007091111110900002020F89D
:40308000242424000000001F00000000008060202040E0000007589090887F0000FC40202020C000001F000000001F0000002020EC000000001010101F101010000020203A
:4030C000EC000000008080807F00000000FC008040200000001F010106081000040404FC000000000000000F1010100000E02020E02020C0001F00001F00001F00E04020E6
:403100002020C000001F000000001F0000C060202060C000000F181010180F0000E040202060800000FF181010180700008060202040E000000718101008FF000000E06007
:403140002020400000001F000000000000C02020202040000009111112120E00002020F8202020000000000F1010100000E000000000E000000F101010081F0000608000F6
:40318000008060000000031C1C030000E0000080800000E00007180707180700002040808040200000100C03030C10000020C00000806000000081C63C0300000020202041
:4031C00020A0600000181412111010000000C0300830C000001807020202071800F8888888888808001F10101010190F00F8888888888870001F10101010190F00F8080846
:4032000008080808001F00000000000000E010080808F800701F101010101F7000F8888888888888001F101010101010001870C0F8C07018001C03001F00031C00100888C5
:4032400088884830000810101010190E00F80000806018F8001F1C060100001F00F80102826118F8001F1C060100001F00F880C020100800001F0000030608100000F8080F
:40328000080808F810180F000000001F00F818E000E018F8001F00000100001F00F88080808080F8001F00000000001F00E01008080810E0000708101010080700F808088D
:4032C000080808F8001F00000000001F00F80808080898F0001F01010101010000E0100808080810000708101010100800080808F8080808000000001F000000000830C006
:4033000000807008000010100F03000000E03010F81030E000030C081F080C07000810608060100800100C0300030C1000F800000000F800001F101010101F7000F8000056
:40334000000000F8000001010101011F00F80000F80000F8001F10101F10101FF80000F80000F8001F10101F10101F700808F8404040808000001F101010180FF8404040C1
:40338000800000F81F1010100807001F00F8808080808000001F10101010190F00108888888890E00008101010100C0700F880F0180818F0001F000F1810180F0000F09889
:4033C000080808F8001008070101011F000040202020C000000E111111091F0000F078282464C000000F181010180F0000E020202020C000001F111111110E000000E020DC
:403400002020200000001F00000000000000E0202020E00000701F1010101F7000C020202020C00000070911111109000020E080E080E020001806031F0306180040202092
:403440002020C0000008101111110E0000E0000000C0E000001F080601001F0000E0000000C0E000001F080601001F0000E0008040200000001F0101060810000000E0205A
:403480002020E00010100F0000001F0000E0C0000000C0E0001F00030403001F00E000000000E000001F010101011F0000C060202060C000000F181010180F0000E0202006
:4034C0002020E000001F000000001F0000E040202060800000FF1810101807000080402020204000000708101010080000002020E0202000000000001F0000000020C000D2
:4035000000806000000081C63C03000000C06020FC2060C0000F1810FF10180F002040808040200000100C03030C100000E000000000E000001F101010101F7000E00000B0
:403540000000E0000001020202021F0000E00000E00000E0001F10101F10101F00E00000E00000E0001F10101F10107F2020E0000000000000001F111111110E00E00000F8
:40358000000000E0001F1111110E001F00E0000000000000001F111111110E000040202020408000000811111109070000E000C0602060C0001F020F1810180F00C02020F1
:4035C00020E0000000110E02021F000000300F40000280320F40800100400F400004000000320F408438000080000000800D830F00040203042006D0070C09040A080CD006
:40360000120814111626170118D01B011CD02023224424D028252A822CD02F0231013208330234F03508360737043AA03E044060410345D14702481349FF4AFF4BFF4DA048
:403640004F04501852805405580459045A045B045C315D335F01604062C06440654066C068C06AC06CC06EC0871289888B038C448E2A8FEC910493439521970298039B0168
:403680009E08A444A5E0A619A871AA04B040B310B407B5E0B638B70FB820BE01BF10D409D604D804D904DB04DC11DD10DF010084038807020A440B210E091140132A1724D9
:4036C000180419481B801E091F212040211022482540261027102A802F2031103308371639203B083C203D803F08430849114A084B08530859095A805D105E825F04674286
:403700007280820487408A10C08FC2CFC46FCA48CCE6CE76D002D204D6FBD89080C081348202850886608775887F8A808B348C908D348E40911492FF941F958096209914F0
:403740009B209C809D209F02A0C0A134A201A4C0A580A604A8C0A93FAA08AB40AD4BAE9FAF30B2FFB307B580B778B820B9A0BB0CBE14D602D720D804D904DB04DC10DD101F
:40378000DF0100280141060207480A800B220E440F0210281180130115401726180819081D111E481F112028210422E02322265B29982A022C292D012F0230A031013208C8
:4037C000358136A4370439593C203D403E023F0847264C844E024F065540561057065E205F106140640166106790686869516A046B48720273018740954096049725994014
:403800009F2EA450A641A705AE01B110B301B440B648C0DFC2DDC4FFCAFFCCFFCEFFD0E0D230D8F8EA405D0163086F02730283048702D680D840DA80DC20E6605D40870221
:403840009140A702AD01B540D620E210EA108840E00164409840D801010A100A02000F405F300F4037310F4033320F4052330F400B400F4009410F4002420F4003430F405D
:4038800002600F401CC100000010000010220C081C0100C02401100000070018140408000808002121C11E0011C1220030C00F000C0010803040003F0F80000800080200C3
:4038C000000000554203500006CEFBDB3FFFFFFF2200F008040000004000040004040404011100010000C00040011011C001001140014001000000000000000000000000FD
:4039000000000000030405060708090A0B0C0E0F101112131415161718191B1C1D1E1F2021222325262728292A2B2E2F303132333435000000001F003B005A0078009700D4
:40394000B500D400F300110130014E011F1C1F1E1F1E1F1F1E1F1E1F4300232D302B2000686C4C006566674546470030313233343536373839414243444546003031323332
:4039800034353637383961626364656600000000F8B5C046F8BC08BC9E46704775020000410A0000F8B5C046F8BC08BC9E4670474D020000C8390000C00000208800000065
:4039C000C800000000000000000000000A000A0010020020010000000000E02EC05D00001800000000366E01040404000000000000000000000000000000000000000000C4
:403A000000000000000000000000000058390000000000000000000000000000000000000000000000000000000000000000000000000000000000000000000000000000F5
:403A4000000000000000000000000000E400002000000000000000000000000000000000000000000000000000000000000000000000000000000000000000000000000042
:403A80000000000000000000000000000000000000000000000000000000000000000000000000000000000000000000000000000000000000000000000000000000000006
:403AC00000000000000000000000000000000000000000000000000000000000000000000000000000000000000000000000000000000000000000000000000000000000C6
:403B00000000000000000000000000000000000000000000000000000000000000000000000000000000000000000000000000000000000000000000000000000000000085
:403B40000000000000000000000000000000000000000000000000000000000000000000000000000000000000000000000000000000000000000000000000000000000045
:0200000490303A
:0200000082CAB2
:0200000490402A
:200000000000000000000000000000000000000000000000000000000000000000000000E0
:0200000490501A
:0C000000000204C81193110104D9945DA2
:0200000490600A
:0100000001FE
:00000001FF